:060000000A128A11E82F2C
:10060800F000831203130C1E052B700899000800D4
:1006180064008001840A04060319003404060D2BC3
:1006280083120313981C1A2B181218168C1E1A2BD7
:100638001A08080000300A128A1195230A128A1132
:1006480001300A128A11952308007E088A007F0863
:10065800820029230A128A118000840A04087D0670
:1006680003190034FF0A0319FE0A2D2B0E348D34AA
:10067800B6348C34DA348C3459348C349C348C341D
:10068800A3348C34F3348C34EF348C34EB348C3422
:10069800E7348C34C130F1008C30F2000A128A1130
:1006A800CD230A128A110A128A112E260A128A11D9
:1006B800013A0319612B031008000314080083167C
:1006C8000313071387170A30990018151812831295
:1006D8000313981783160313981683120313181617
:1006E8008316031318138312031318130800F0005A
:1006F800701C822B831203130816852B8312031395
:100708000812F01C892B88168A2B8812701D8E2BD4
:1007180008178F2B0813F01D932B881708008813D0
:100728000800F30083120313081173080A128A11D0
:100738007B230A128A118312031388151A30F200D8
:10074800F830F100F10BA62BF20BA62B0000831258
:10075800031388110800F4003930F1008C30F200DE
:100768000A128A11CD230A128A117408303E0A121D
:100778008A1104230A128A11BE30F1008C30F2006B
:100788000A128A11CD230A128A110A128A112E26F8
:100798000800720883120313FF00710884000A120C
:1007A8008A1500200A128A11003A031908007208F3
:1007B80083120313FF00710884000A128A150020AF
:1007C8000A128A110A128A1104230A128A110130A4
:1007D800F1070318F20ACD2BFB01FC017B0879070E
:1007E80084007C0803187C0A7A0783120313FF002D
:1007F8000A128A1500200A128A11003A0319080001
:100808007B08790784007C0803187C0A7A0783121E
:100818000313FF000A128A1500200A128A110A120D
:100828008A11D6240A128A110130FB070318FC0A20
:100838000030FC07F22B2330F1008C30F2000A1252
:100848008A11CD230A128A117408F1007508F20082
:100858000A128A11CD230A128A11C730F1008C308E
:10086800F2000A128A11CD230A128A117608F100C1
:100878007708F2000A128A11CD230A128A11DF3092
:10088800F1008C30F2000A128A11CD230A128A1163
:100898000A128A112E260800F601F301F4010A1241
:1008A8008A1114230A128A11F2007208F500013025
:1008B800F3070318F40A0030F40776087007840079
:1008C80071080318710A83120313FF000A128A15AC
:1008D80000200A128A117506031D772C0130F200D8
:1008E8007208F607782CF6017608700784007108FC
:1008F8000318710AFF000A128A1500200A128A11C9
:10090800003A031D532C7408F1007308F000080026
:10091800F7007703031DB12C74087F3EF5007508B6
:10092800FA007A08F50004300310F50CFF3E031DA9
:10093800982C7508F6007608F8007A080F39F50043
:100948007508F90078080A128A1195230A128A1183
:1009580079080A128A119523080002307706031DC8
:1009680008007408BF3EF5007508FA007A08F5001B
:1009780004300310F50CFF3E031DBD2C7508F6006E
:100988007608F8007A080F39F5007508F900780834
:100998000A128A1195230A128A1179080A128A11F1
:1009A80095230800F40074080F39F1007108F2006B
:1009B8007408F039F1007108F30083120313081565
:1009C8007308F10004300310F10CFF3E031DE72CFF
:1009D80071080A128A117B230A128A1183120313DF
:1009E80088153330F5008230F6007608803AFF002B
:1009F80080307F02031D022D013075020318162D69
:100A08000000FF30F5070318F60AFF30F6077608EE
:100A1800803AFF0080307F02031D142D01307502DB
:100A2800031C042D83120313881172080A128A11F9
:100A38007B230A128A118312031388153330F700B7
:100A48008230F8007808803AFF0080307F02031D6A
:100A58002F2D013077020318432D0000FF30F707D0
:100A68000318F80AFF30F8077808803AFF0080304A
:100A78007F02031D412D01307702031C312D8312A3
:100A88000313881108006130F1008B30F2000A125C
:100A98008A11CD230A128A110E30F0008D30F10030
:100AA8000A128A1150240A128A11D730F1008930AB
:100AB800F2000A128A11CD230A128A110E30F000B0
:100AC8008D30F1000A128A1150240A128A1103305B
:100AD800F1008B30F2000A128A11CD230A128A1112
:100AE8000E30F0008D30F1000A128A1150240A12DB
:100AF8008A117530F1008930F2000A128A11CD236B
:100B08000A128A11203083120313A0000030A100BA
:100B1800A201A3011030220623040319B52D0A12DD
:100B28008A1114230A128A11F7002030F8000030C5
:100B3800F9008312031322087807FA002308031820
:100B4800230A7907FB007A08840083177B1C831328
:100B5800770880000130A2070318A30A0030A30712
:100B68008E2D2030F6000030F700080000300A1201
:100B78008A117B230A128A111C30F6004130F700D3
:100B88007708803AFF0080307F02031DCD2D0130A9
:100B980076020318E12D0000FF30F6070318F70A64
:100BA800FF30F7077708803AFF0080307F02031D87
:100BB800DF2D01307602031CCF2D03300A128A1173
:100BC80095230A128A112130F5007630F400F40BCF
:100BD800EB2DF50BEB2D000003300A128A1195233B
:100BE8000A128A114830F5006C30F400F40BFA2D23
:100BF800F50BFA2D000003300A128A1195230A1208
:100C08008A1102300A128A1195230A128A110230B7
:100C18000A128A1195230A128A1108300A128A11B7
:100C280095230A128A1100300A128A1195230A1292
:100C38008A110C300A128A1195230A128A1100307F
:100C48000A128A1195230A128A1106300A128A1189
:100C5800952308002C308400831203133D08831366
:100C68008000840A3E088000840A3F088000840AC5
:100C780040088000840A41088000840A42088000F5
:100C8800203084005430F0000408F1000C30F200E9
:100C98007008840083130008F300F00A71088400C8
:100CA80073088000F10AF20B4C2EB401B40A340820
:100CB8000319C22E0A128A1114230A128A11F0008B
:100CC800700883120313B200B50106303502031809
:100CD8005B2E3508F0007007203E8400831300085F
:100CE800F100840A0008F20035082C3E8400000850
:100CF8007107840072080318720AFF000A128A1525
:100D080000200A128A113206031DB82E0130F000A5
:100D180035082C3E84007008831380073508223E6E
:100D2800840088300318013EFF000A128A1500204B
:100D38000A128A11F00035082C3E8400831300083B
:100D48007006031DBD2E35081C3E8400883003182C
:100D5800013EFF000A128A1500200A128A11F000CB
:100D68007008B300B401BD2E35082C3E84008313EF
:100D780080010130F0007008B507692E33080800BB
:100D8800831603138801143083120313B600360840
:100D9800BC00B901BA010A128A11BA250A128A11CD
:100DA8000A128A1163230A128A11F401F40A013023
:100DB8000A128A118C240A128A11DD30F9008B304C
:100DC800FA000A128A11F0230A128A1127308312B4
:100DD8000313B8000D30B7002530B600B60BF22E5D
:100DE800B70BF22EB80BF22EF92E0A128A111E2317
:100DF8000A128A11F401F40A01300A128A118C24A9
:100E08000A128A11A730F9008B30FA000A128A11E7
:100E1800F0230A128A110A128A114E230A128A1121
:100E2800031CFE2EF401F40A01300A128A118C24E4
:100E38000A128A11F230F9008A30FA000A128A116D
:100E4800F0230A128A11273083120313B8000D30D9
:100E5800B7002530B600B60B2F2FB70B2F2FB80BC6
:100E68002F2F362F0A128A111E230A128A110130D7
:100E78000A128A11AF230A128A11F401F40A013006
:100E88000A128A118C240A128A114430F9008C3013
:100E9800FA000A128A11F0230A128A11F401F40ADC
:100EA80002300A128A118C240A128A118630F9003B
:100EB8008C30FA000A128A11F0230A128A1127309C
:100EC80083120313B8000D30B7002530B600B60BF7
:100ED8006B2FB70B6B2FB80B6B2F722F0A128A115F
:100EE8001E230A128A110730F4008D30F5006C3089
:100EF800F6008C30F7000A128A111F240A128A1190
:100F080083120313B6003608BB00F401F40A01305B
:100F18000A128A118C240A128A119930F9008B302E
:100F2800FA000A128A11F0230A128A118312031393
:100F38003B03031DAB2FF401F40A02300A128A1195
:100F48008C240A128A110E30F9008D30B62FF40164
:100F5800F40A02300A128A118C240A128A11B0305B
:100F6800F9008C30FA000A128A11F0230A128A1149
:100F7800273083120313B8000D30B7002530B600B0
:100F8800B60BC42FB70BC42FB80BC42FCB2F0A1224
:100F98008A111E230A128A110A128A1147250A1277
:100FA8008A11760883120313B6003608BC003C0881
:100FB800B600B7013608F9003708FA000A128A1194
:100FC800F0230A128A11E72F83136830FD000330DB
:100FD800FE003A30FF00543084000A128A112D2393
:100FE8000A128A113D30840054300A128A110C23E7
:100FF80083010A128A11C42EFF1B0A2883137F1843
:1010080083170008840A0319FF0A08007F087F393C
:101018008A000408840A0319FF0A82000134003494
:101028000A34003464340034E83403341034273488
:1010380001340234033404340534063402340534EC
:1010480004340934063406340434033402340134D5
:1010580003340334033403343C34683474346D3457
:101068006C343E343C3468346534613464343E3422
:101078003C347434693474346C3465343E345034DC
:10108800533451343C342F347434693474346C34EC
:1010980065343E343C346D34653474346134203402
:1010A80068347434743470342D3465347134753460
:1010B800693476343D34223472346534663472349B
:1010C8006534733468342234203463346F346E34B6
:1010D800743465346E3474343D34223434342234F8
:1010E80020343E343C342F346834653461346434FD
:1010F8003E343C34683431343E3457344534423419
:1011080020344C344534443421343C342F3468344E
:1011180031343E3400343C3470343E343C34693429
:101128006E347034753474342034743479347034D3
:1011380065343D3422347334753462346D34693423
:101148007434223420346E3461346D3465343D3463
:101158002234423422342034763461346C34753489
:1011680065343D3422343234223420343E34203441
:101178004C3445344434313420344F3446344634C6
:101188003C342F3470343E3400343C3470343E34B4
:101198003C3469346E3470347534743420347434A7
:1011A8007934703465343D342234733475346234A0
:1011B8006D3469347434223420346E3461346D34BF
:1011C80065343D3422344234223420347634613458
:1011D8006C34753465343D3422343434223420344C
:1011E8003E3420344C3445344434323420344F3483
:1011F800463446343C342F3470343E3400343C3466
:1012080070343E343C3469346E347034753474341C
:10121800203474347934703465343D342234733472
:10122800753462346D3469347434223420346E3445
:1012380061346D3465343D342234423422342034F0
:10124800763461346C34753465343D342234313449
:10125800223420343E3420344C3445344434313440
:1012680020344F344E343C342F3470343E34003400
:101278003C3470343E343C3469346E3470347534E4
:101288007434203474347934703465343D34223401
:101298007334753462346D346934743422342034D0
:1012A8006E3461346D3465343D3422344234223432
:1012B8002034763461346C34753465343D342234EA
:1012C8003334223420343E3420344C3445344434CE
:1012D800323420344F344E343C342F3470343E345E
:1012E800003447344534543420342F347734693447
:1012F80064342F3471347534653472347934443439
:10130800463453345234533453342E346A34733499
:1013180070343F347A346F346E3465343D34343449
:10132800313431343934303438343334303430347F
:101338003034203448345434543450342F34313415
:101348002E3431340D340A340034413454342B34BF
:10135800433449345034533454344134523454347B
:101368003D3434342C34223454344334503422340D
:101378002C3422346D34613469346C342E34733433
:101388006D3474347034323467346F342E346334CB
:101398006F346D3422342C343234353432343534AD
:1013A8000D340A340034413454342B344334493432
:1013B8005034533454344134523454343D34223448
:1013C80054344334503422342C3422347734773430
:1013D80077342E346B346D3461342E3467346F3483
:1013E8002E346B34723422342C34383430340D3487
:1013F8000A3400343C3462346F34643479343E3413
:101408003C3470343E343C3466346F3472346D345A
:1014180020346D346534743468346F3464343D3446
:10142800223447344534543422343E343C342F3447
:1014380070343E3400343C3470343E3452344134D9
:10144800333420344F344E34213420343C342F3458
:1014580070343E343C342F3462346F34643479341D
:101468003E343C342F34683474346D346C343E3438
:101478000D340A3400343C3470343E345234413430
:10148800333420344F344634463421343C342F34FA
:1014980070343E343C342F3462346F3464347934DD
:1014A8003E343C342F34683474346D346C343E34F8
:1014B8000D340A340034453448344C344F34203425
:1014C8003134393432342E343134363438342E34DD
:1014D80031342E343134323433340D340A34003458
:1014E800413454342B344334493450345334453420
:1014F80052345634453452343D3431342C34383433
:1015080030340D340A340034413454342B344334E9
:1015180049345034533445344E3444343D343034F3
:101528002C343334383431340D340A3400344134F3
:1015380054342B34433449345034533445344E34C2
:1015480044343D3434342C34323430340D340A3499
:101558000034413454342B344334493450345334F4
:1015680045344E3444343D3434342C3431343234FC
:101578000D340A340034413454342B344334493460
:101588005034533445344E3444343D3434342C349C
:1015980033340D340A340034413454342B34433456
:1015A80049345034533445344E3444343D3434345F
:1015B8002C3436340D340A340034413454342B344A
:1015C8004834543454345034473445345434533400
:1015D80049345A3445343D34203400344534533486
:1015E8005034203469347334203463346F346E34A7
:1015F8006E3465346334743465346434003441348F
:1016080054342B34433449345034533445344E34F1
:1016180044343D34323430340D340A3400344134E7
:1016280054342B3443344934503443344C344F34D9
:10163800533445343D3430340D340A3400344134A5
:1016480054342A3443344934503453344E345434A3
:101658005034463447343F340D340A34003441346E
:1016680054342B34483454345434503443344C3484
:10167800493445344E3454343D34223400344134F2
:1016880054342B344334493450345334543441346F
:101698005434553453340D340A34003473346534B7
:1016A8006E34683461346434653473347534613449
:1016B80057346934663469340034413454342B3433
:1016C8004334493450344D34553458343D3430342F
:1016D8000D340A340034413454342B3443344934FF
:1016E80050344D34553458343D3431340D340A3483
:1016F8000034413454342B34433449345034533453
:1017080054344134523454343D3422340034413456
:1017180054342B34433449345034533445344E34E0
:1017280044343D3434342C3400344134503420347F
:1017380063346F346E3466346934673475347234A4
:1017480065346434003445345334503420346E34B2
:101758006F347434203466346F3475346E346434C2
:1017680000344E346F346D34653464346534733406
:1017780075346134773469346634693400344134FB
:1017880054342B34433449345034533454344F3460
:101798003F340D340A340034413455345434483419
:1017A80020344C344F34473449344E340D340A34E1
:1017B80000344A3449344E3457344F344F3420348B
:1017C80045344C3454344534433400344D34413476
:1017D80049344C342034463452344F344D343A343E
:1017E8003C340034413454342B3443344934503479
:1017F800533445344E3444343D3400344134543445
:101808002B34433457344C34493446340D340A3479
:101818000034413454342B34433457345134413434
:1018280050340D340A340034413454342B344334A6
:1018380049344634533452340D340A340034413474
:1018480054342B34433457344A34413450343D34BF
:1018580022340034413454342B3443345734533411
:10186800413450343D3422340034413454342B3420
:10187800433457344D344F34443445343D340034C4
:10188800453453345034203473346534743420343C
:101898006134733400345234433450345434203473
:1018A80054346F343A343C3400346E346F3420345A
:1018B8006334683461346E346734653400344134D9
:1018C80054342B345234533454340D340A340034E1
:1018D8006C34613462343134323433343434353432
:1018E80000345334753462346A3465346334743480
:1018F8003A34003422342C3435342C3433340D3417
:101908000A340034533474346134743469346F34B1
:101918006E34003444344134543441340D340A3480
:10192800003451345534493454340D340A340034B5
:101938004C3469346E346B34653464340034553453
:101948006E346C3469346E346B3400342B3449345F
:10195800503444342C3400344534523452344F34E7
:101968005234003472346534613464347934003468
:101978000D340A340D340A340034413454340D34EF
:101988000A340034313422342C34223400343234D2
:1019980022342C3422340034333422342C3422348C
:1019A80000344D34413443343A34003446344134FD
:1019B80049344C34003422340D340A3400342E3483
:1019C8000D340A34003442343D3431340034423466
:1019D8003D343234003442343D34333400344234FC
:1019E8003D3434340034493450343A3400344134CA
:1019F800543445340034543443345034003455346A
:101A08004434503400346C34613462340034223449
:101A18002C3400344F344B340034253475340034BE
:041A28000034003452
:02400E003A3F37
:00000001FF
